:020000040800F2
:100000006006002049010008510100085301000862
:1000100000000000000000000000000000000000E0
:100020000000000000000000000000005501000872
:1000300000000000000000005701000859010008FE
:100040005B0100085B0100085B0100085B01000820
:100050005B0100085B0100085B0100085B01000810
:100060005B0100085B0100085B0100085B01000800
:100070005B0100085B0100085B0100085B010008F0
:100080005B0100085B0100085B0100085B010008E0
:100090005B0100085B0100085B0100085B010008D0
:1000A0005B0100085B0100085B0100085B010008C0
:1000B0005B0100085B0100085B0100085B010008B0
:1000C00000F002F800F030F80CA030C8083824180E
:1000D0002D18671EA246AB4654465D46AC4201D180
:1000E00000F022F87E460F3EB6460FCC0126334282
:1000F00000D0FB1A3343A246AB461847A0010000CC
:10010000B00100000023002400250026103A01D38E
:1001100078C1FBD8520700D330C100D50B607047BF
:100120001FB51FBD10B510BD00F02DF81146FFF72B
:10013000F7FF00F06DF800F045F803B4FFF7F2FFA9
:1001400003BC00F04BF80000074880470748004711
:10015000FEE7FEE7FEE7FEE7FEE7FEE704480549A7
:10016000054A064B70470000EB010008C10000087B
:100170006000002060060020600200206002002075
:10018000704770477047754600F024F8AE4605008A
:1001900069465346C008C000854618B020B5FFF731
:1001A000DDFF60BCB64600260027C0C5C0C5C0C57F
:1001B000C0C5C0C5C0C5C0C5C0C5403D490849008F
:1001C0008D46704710B50446C046C0462046FFF72E
:1001D000B4FF10BD004870470000002001491820FE
:1001E000ABBEFEE7260002007047704782B0019068
:1001F00000200090FFE700980199884205D2FFE7B0
:10020000FFE70098401C0090F5E702B0704700003F
:1002100080B586B00020059019480168012293043A
:100220001943016017480168174B194301600168C1
:100230000F231B0699430160144801681202114301
:10024000016013480490FFE7124800680321090386
:100250000840000B0390104801680122114301601F
:100260000499039B9940029008460192FFF7BEFF54
:1002700002980168019A130419430160E4E7C0463B
:10028000141002400004004801000100140400485A
:1002900050C300001004004818040048AC020008D5
:0C02A000000000206006000004010008BF
:04000005080000C12E
:00000001FF
