:020000040800F2
:100000006006002049010008510100085301000862
:1000100000000000000000000000000000000000E0
:100020000000000000000000000000005501000872
:1000300000000000000000005701000859010008FE
:100040005B0100085B0100085B0100085B01000820
:100050005B0100085B0100085B0100085B01000810
:100060005B0100085B0100085B0100085B01000800
:100070005B0100085B0100085B0100085B010008F0
:100080005B0100085B0100085B0100085B010008E0
:100090005B0100085B0100085B0100085B010008D0
:1000A0005B0100085B0100085B0100085B010008C0
:1000B0005B0100085B0100085B0100085B010008B0
:1000C00000F002F800F030F80CA030C8083824180E
:1000D0002D18671EA246AB4654465D46AC4201D180
:1000E00000F022F87E460F3EB6460FCC0126334282
:1000F00000D0FB1A3343A246AB461847DC0500008C
:10010000EC0500000023002400250026103A01D34E
:1001100078C1FBD8520700D330C100D50B607047BF
:100120001FB51FBD10B510BD00F0E3F81146FFF775
:10013000F7FF00F023F900F0FBF803B4FFF7F2FF3C
:1001400003BC00F001F9000007488047074800475A
:10015000FEE7FEE7FEE7FEE7FEE7FEE704480549A7
:10016000054A064B7047000057030008C10000080D
:100170006000002060060020600200206002002075
:10018000002203098B422CD3030A8B4211D3002394
:100190009C464EE003460B433CD4002243088B426E
:1001A00031D303098B421CD3030A8B4201D39446FB
:1001B0003FE0C3098B4201D3CB01C01A52418309EE
:1001C0008B4201D38B01C01A524143098B4201D3A8
:1001D0004B01C01A524103098B4201D30B01C01AD3
:1001E0005241C3088B4201D3CB00C01A524183084D
:1001F0008B4201D38B00C01A524143088B4201D37A
:100200004B00C01A5241411A00D2014652411046D9
:1002100070475DE0CA0F00D04942031000D340424E
:1002200053409C46002203098B422DD3030A8B4284
:1002300012D38901FC2212BA030A8B420CD3890122
:1002400092118B4208D3890192118B4204D3890108
:100250003AD0921100E08909C3098B4201D3CB0146
:10026000C01A524183098B4201D38B01C01A5241FB
:1002700043098B4201D34B01C01A524103098B42FF
:1002800001D30B01C01A5241C3088B4201D3CB00EA
:10029000C01A524183088B4201D38B00C01A5241CD
:1002A000D9D243088B4201D34B00C01A5241411AA4
:1002B00000D201465241104663465B1001D34042D2
:1002C000002B00D54942704763465B1000D3404283
:1002D00001B50549002802DC491C084000E0084639
:1002E000C046C04602BD00BFFFFFFF7F704770479A
:1002F0007047754600F024F8AE460500694653463F
:10030000C008C000854618B020B5FFF727FF60BCC5
:10031000B64600260027C0C5C0C5C0C5C0C5C0C5FB
:10032000C0C5C0C5C0C5403D490849008D4670479D
:1003300010B50446C046C0462046FFF7FEFE10BD7D
:10034000004870470000002001491820ABBEFEE7BE
:10035000260002007047704782B001900020009094
:10036000FFE700980199884205D2FFE7FFE7009870
:10037000401C0090F5E702B07047000080B5A2B0C5
:100380000020219072480168012293041943016002
:100390000E201B906F48016813031940090B1C9134
:1003A000016853031940490B1D91016893031940DB
:1003B000890B1E91006880B2C00B1F9066480168CF
:1003C000664B194301600168FF231B0699430160D6
:1003D0006348016852021143016062482090FFE7C0
:1003E0001F981390012014901E99159100211691C9
:1003F00017901D98189019911C981A900A9107202F
:1004000008900791FFE70798072817D8FFE7079894
:10041000800013A90858089902220390104600F0A2
:100420002DF9039948430A9908180A900898401E24
:100430000890FFE70798401C0790E4E7002006902B
:10044000FFE7069808282FD8FFE70A981B99FFF7BF
:1004500097FE09910999069A92000BAB9950099958
:100460000A9A511A0A910A991B9A02900846114653
:10047000FFF786FE0A900A981B9988420FD2FFE781
:100480000698401C06900A98069989000BAA5050BD
:100490000A981B99884201D2FFE705E0FFE7FFE7D2
:1004A0000698401C0690CCE7002008900720049096
:1004B000FFE70498002838D3FFE7049880000BA9D1
:1004C00008580590089800281AD1FFE70498800082
:1004D0000BA9085808900898002810D0FFE7059845
:1004E00000F046F82148FFF737FF1D480168012258
:1004F0005202114301601B48FFF72EFFFFE70FE098
:10050000059800F035F81948FFF726FF14480168F0
:1005100001225202114301601248FFF71DFFFFE75D
:10052000FFE70498401E0490C3E753480168802207
:10053000114301600C480190FFF70EFF0848016865
:1005400001225202114301600198FFF705FF47E7BE
:1005500014100240100400480004004855550400DF
:100560001404004850C3000020A10700400D030000
:1005700081B000900098002804D1FFE73E483F2159
:100580000160FFE70098012804D1FFE73A480621FF
:100590000160FFE70098022804D1FFE736485B219D
:1005A0000160FFE70098032804D1FFE732484F219C
:1005B0000160FFE70098042804D1FFE72E48662178
:1005C0000160FFE70098052804D1FFE72A486D2164
:1005D0000160FFE70098062804D1FFE726487D2147
:1005E0000160FFE70098072804D1FFE722480721B0
:1005F0000160FFE70098082804D1FFE71E487F212B
:100600000160FFE70098092804D1FFE71A486F212D
:100610000160FFE700980A2804D1FFE71648772118
:100620000160FFE700980B2804D1FFE712487C2106
:100630000160FFE700980C2804D1FFE70E4839213C
:100640000160FFE700980D2804D1FFE70A485E210A
:100650000160FFE700980E2804D1FFE706487921E2
:100660000160FFE700980F2804D1FFE702487121DD
:100670000160FFE701B070471804004880B584B0FE
:10068000029001910198002803D1FFE70120039017
:100690001EE00198012803D1FFE70298039017E0BC
:1006A00001A80078C007002808D1FFE7029840435E
:1006B00001994908FFF7E2FF039009E002984043DF
:1006C00001994908FFF7DAFF029941430391FFE7D7
:1006D000039804B080BD0000E80600080000002078
:0806E00060060000040100089F
:04000005080000C12E
:00000001FF
