:020000040800F2
:100000006006002049010008510100085301000862
:1000100000000000000000000000000000000000E0
:100020000000000000000000000000005501000872
:1000300000000000000000005701000859010008FE
:100040005B0100085B0100085B0100085B01000820
:100050005B0100085B0100085B0100085B01000810
:100060005B0100085B0100085B0100085B01000800
:100070005B0100085B0100085B0100085B010008F0
:100080005B0100085B0100085B0100085B010008E0
:100090005B0100085B0100085B0100085B010008D0
:1000A0005B0100085B0100085B0100085B010008C0
:1000B0005B0100085B0100085B0100085B010008B0
:1000C00000F002F800F030F80CA030C8083824180E
:1000D0002D18671EA246AB4654465D46AC4201D180
:1000E00000F022F87E460F3EB6460FCC0126334282
:1000F00000D0FB1A3343A246AB461847F405000074
:10010000040600000023002400250026103A01D335
:1001100078C1FBD8520700D330C100D50B607047BF
:100120001FB51FBD10B510BD00F0E3F81146FFF775
:10013000F7FF00F023F900F0FBF803B4FFF7F2FF3C
:1001400003BC00F001F9000007488047074800475A
:10015000FEE7FEE7FEE7FEE7FEE7FEE704480549A7
:10016000054A064B7047000057030008C10000080D
:100170006000002060060020600200206002002075
:10018000002203098B422CD3030A8B4211D3002394
:100190009C464EE003460B433CD4002243088B426E
:1001A00031D303098B421CD3030A8B4201D39446FB
:1001B0003FE0C3098B4201D3CB01C01A52418309EE
:1001C0008B4201D38B01C01A524143098B4201D3A8
:1001D0004B01C01A524103098B4201D30B01C01AD3
:1001E0005241C3088B4201D3CB00C01A524183084D
:1001F0008B4201D38B00C01A524143088B4201D37A
:100200004B00C01A5241411A00D2014652411046D9
:1002100070475DE0CA0F00D04942031000D340424E
:1002200053409C46002203098B422DD3030A8B4284
:1002300012D38901FC2212BA030A8B420CD3890122
:1002400092118B4208D3890192118B4204D3890108
:100250003AD0921100E08909C3098B4201D3CB0146
:10026000C01A524183098B4201D38B01C01A5241FB
:1002700043098B4201D34B01C01A524103098B42FF
:1002800001D30B01C01A5241C3088B4201D3CB00EA
:10029000C01A524183088B4201D38B00C01A5241CD
:1002A000D9D243088B4201D34B00C01A5241411AA4
:1002B00000D201465241104663465B1001D34042D2
:1002C000002B00D54942704763465B1000D3404283
:1002D00001B50549002802DC491C084000E0084639
:1002E000C046C04602BD00BFFFFFFF7F704770479A
:1002F0007047754600F024F8AE460500694653463F
:10030000C008C000854618B020B5FFF727FF60BCC5
:10031000B64600260027C0C5C0C5C0C5C0C5C0C5FB
:10032000C0C5C0C5C0C5403D490849008D4670479D
:1003300010B50446C046C0462046FFF7FEFE10BD7D
:10034000004870470000002001491820ABBEFEE7BE
:10035000260002007047704782B001900020009094
:10036000FFE700980199884205D2FFE7FFE7009870
:10037000401C0090F5E702B070470000B0B5A0B097
:1003800000201F9068490A6801239C0422430A60E8
:100390000E21199165490A681A900C681B9008682B
:1003A0009D032840800B1C900868D9030840800BEF
:1003B0001D905F4801685F4D294301600168FF257A
:1003C0002D06A94301605C4801685B021943016086
:1003D0005A481E90FFE71D981190012012901C9919
:1003E00013910021149115901B98169017911A984B
:1003F00018900891072006900591FFE705980728B7
:1004000017D8FFE70598800011A90858069902221D
:100410000190104600F03EF90199484308990818E8
:1004200008900698401E0690FFE70598401C05902E
:10043000E4E700200490FFE7049808282FD8FFE79E
:1004400008981999FFF79CFE07910799049A920062
:1004500009AB99500799089A511A08910899199A65
:10046000009008461146FFF78BFE089008981999EE
:1004700088420FD2FFE70498401C04900898049922
:10048000890009AA505008981999884201D2FFE7BB
:1004900005E0FFE7FFE70498401C0490CCE700204C
:1004A000069007200290FFE70298002832D3FFE76A
:1004B0000298800009A9085803900698002817D1CF
:1004C000FFE70298800009A90858069006980028BE
:1004D0000DD0FFE7039800F037F81A48FFF73CFF0C
:1004E0006B48016801601548FFF736FFFFE70CE035
:1004F000039800F029F81348FFF72EFF64480168BD
:1005000001600E48FFF728FFFFE7FFE70298401E53
:100510000290C9E75E4801688022114301600848E3
:10052000FFF71AFF57E7C0461410024010040048B6
:1005300000040048555504001404004850C300004E
:1005400020A10700400D030081B000900098002812
:1005500006D1FFE74E4801683F2211430160FFE7E3
:100560000098012806D1FFE7494801680622114397
:100570000160FFE70098022806D1FFE744480168C0
:100580005B2211430160FFE70098032806D1FFE7D3
:100590003F4801684F2211430160FFE7009804289B
:1005A00006D1FFE73A480168662211430160FFE780
:1005B0000098052806D1FFE7354801686D221143F0
:1005C0000160FFE70098062806D1FFE73048016880
:1005D0007D2211430160FFE70098072806D1FFE75D
:1005E0002B480168072211430160FFE700980828A3
:1005F00006D1FFE7264801687F2211430160FFE72B
:100600000098092806D1FFE7214801686F221143AD
:100610000160FFE700980A2806D1FFE71C4801683F
:10062000772211430160FFE700980B2806D1FFE70E
:10063000174801687C2211430160FFE700980C28ED
:1006400006D1FFE712480168392211430160FFE734
:1006500000980D2806D1FFE70D4801685E2211437E
:100660000160FFE700980E2806D1FFE708480168FF
:10067000792211430160FFE700980F2806D1FFE7B8
:1006800003480168712211430160FFE701B0704720
:100690001804004880B584B00290019101980028A8
:1006A00003D1FFE7012003901EE00198012803D148
:1006B000FFE70298039017E001A80078C007002820
:1006C00008D1FFE70298404301994908FFF7E2FF8C
:1006D000039009E00298404301994908FFF7DAFFC7
:1006E000029941430391FFE7039804B080BD0000E5
:1006F0000007000800000020600600000401000858
:04000005080000C12E
:00000001FF
