:020000040800F2
:100000006006002049010008510100085301000862
:1000100000000000000000000000000000000000E0
:100020000000000000000000000000005501000872
:1000300000000000000000005701000859010008FE
:100040005B0100085B0100085B0100085B01000820
:100050005B0100085B0100085B0100085B01000810
:100060005B0100085B0100085B0100085B01000800
:100070005B0100085B0100085B0100085B010008F0
:100080005B0100085B0100085B0100085B010008E0
:100090005B0100085B0100085B0100085B010008D0
:1000A0005B0100085B0100085B0100085B010008C0
:1000B0005B0100085B0100085B0100085B010008B0
:1000C00000F002F800F030F80CA030C8083824180E
:1000D0002D18671EA246AB4654465D46AC4201D180
:1000E00000F022F87E460F3EB6460FCC0126334282
:1000F00000D0FB1A3343A246AB4618470C20000041
:100100001C2000000023002400250026103A01D303
:1001100078C1FBD8520700D330C100D50B607047BF
:100120001FB51FBD10B510BD00F03CFF1146FFF715
:10013000F7FF00F0C9FF00F054FF03B4FFF7F2FF30
:1001400003BC00F0A7FF00000748804707480047AE
:10015000FEE7FEE7FEE7FEE7FEE7FEE704480549A7
:10016000054A064B70470000A3100008C1000008B4
:100170006000002060060020600200206002002075
:10018000002203098B422CD3030A8B4211D3002394
:100190009C464EE003460B433CD4002243088B426E
:1001A00031D303098B421CD3030A8B4201D39446FB
:1001B0003FE0C3098B4201D3CB01C01A52418309EE
:1001C0008B4201D38B01C01A524143098B4201D3A8
:1001D0004B01C01A524103098B4201D30B01C01AD3
:1001E0005241C3088B4201D3CB00C01A524183084D
:1001F0008B4201D38B00C01A524143088B4201D37A
:100200004B00C01A5241411A00D2014652411046D9
:1002100070475DE0CA0F00D04942031000D340424E
:1002200053409C46002203098B422DD3030A8B4284
:1002300012D38901FC2212BA030A8B420CD3890122
:1002400092118B4208D3890192118B4204D3890108
:100250003AD0921100E08909C3098B4201D3CB0146
:10026000C01A524183098B4201D38B01C01A5241FB
:1002700043098B4201D34B01C01A524103098B42FF
:1002800001D30B01C01A5241C3088B4201D3CB00EA
:10029000C01A524183088B4201D38B00C01A5241CD
:1002A000D9D243088B4201D34B00C01A5241411AA4
:1002B00000D201465241104663465B1001D34042D2
:1002C000002B00D54942704763465B1000D3404283
:1002D00001B50549002802DC491C084000E0084639
:1002E000C046C04602BD00BFFFFFFF7F704770479A
:1002F00070470000F0B50C46871A9C410D46861ADF
:100300009D4103D2C01BA141D21963410D0D1F0DA8
:10031000C94EEC1BAE435CD07F057F0D0026002F3D
:1003200051D02D05AC46A943DD020123ED0A1B0582
:100330001D4320231B1B24D41746E7403818714166
:100340002F46E740CC199D402818314661410C0DDD
:1003500027D161449A4013D50023401C59415200D3
:100360000ED14008400001224B005205D34207D372
:1003700005204007C14201D5B04900E0B0493046F0
:10038000F0BD6B00002A00D001229A181F23203CE8
:100390001B1B01D5002302E0E540281871410C0D1C
:1003A000D7D0012424050919C407CD0740084908FE
:1003B000E40F28436144002CD5D00024401C614147
:1003C0009A40D0D1CDE76A05520DD9D1C90FC907DE
:1003D000D5E79C4D4E00002801D0012400E0002408
:1003E00034195F00002A01D0012600E00026BE1962
:1003F000954FAC420CD8AE420AD8B44206D0012583
:100400006D05EC42BCD010461946F0BD9942FCD0B7
:1004100000203946F0BDF0B51FB40C460F46811AD6
:100420009F412546861A9D4106D20125ED076F4062
:10043000401ABC4152187B41210D1E0D8D1BAC464C
:100440007D4D8D437ED075056D0D7CD00D05AE467E
:10045000AC431B031B0B794D52429D412023664642
:100460009B1B14D31746F7403818002600907441A0
:1004700060462F460741E41900989D4028186641C0
:1004800016D4714671189A4025D5012320E093189F
:100490002A466A415200002B00D0521C1E23203EE7
:1004A0009B1B002B61DD3541EE1728186641E8D50E
:1004B000001876415B1C9A4000D3401C4B05F31892
:1004C0001524E34010D3002B52D071467118D30F7E
:1004D000C01802D3491C05B0F0BD0123DB079A42C6
:1004E000F9D140084000F6E701225205B21801D1C7
:1004F000002853D00123CC0ADB029943891E002A2D
:1005000008D1020C03D0020C0004103902E00246AC
:10051000002020390023550B05D112020823550B6A
:1005200001D152010D23550C01D112011B1DD50C17
:1005300001D192009B1C150D01D152005B1C20259E
:10054000EE1A01E02CE022E00546F5401543984004
:10055000CA1AE10769181305C918002ABBDA032073
:1005600040070818C10FC9070FE071466118B2E7CC
:10057000F10740080843711071444A000CD0012370
:100580005B059A42A7D2C90FC9070020A3E7490516
:10059000490D26D1002001E00028F4D100219AE77E
:1005A000284D6600002801D0012100E000217118CB
:1005B0005F00002A01D0012600E00026BE19224F6C
:1005C000A94210D8AE420ED8B14208D001256D051F
:1005D000E94206D01946A802414010467BE79C42FA
:1005E00001D0214677E70020394674E710B50C4664
:1005F0005C4005D50124E4076340FFF70CFF10BD04
:10060000FFF778FE10BD30B40C465C4004D50124E1
:10061000E407634030BC6DE630BCFCE670B50124F5
:10062000E40761400D465D4002D4FFF763FE70BDF4
:100630006340FFF7F0FE70BDFF0700000000F0FF11
:100640000000F07F0000E0FF0000F87F0346CA02D0
:10065000400D10B510430A1504D00124E4072043CF
:10066000002A05DB0A4CA21A04D4D040FF2A00DD80
:10067000002010BD4A00002B01D0012000E0002026
:10068000101801225205D042F2D8C817C04310BD3D
:100690001E0400001F22030C02D10F22000402D00E
:1006A000030E03D004E00020014670470002083A20
:1006B000030F01D10001121F830F01D18000921E90
:1006C000002801DB4000521E120551184205C012DD
:1006D000411810467047C10FC90700D0404201229F
:1006E00092071143D6E701218907D3E7F0B58B4C78
:1006F0000F09254689B0BD437BD01D092646AE4370
:10070000FAD00E465E402740F60F3E43254071D09A
:1007100024012142FBD0FF24AD19A4042D1B039515
:1007200001252D05DB02DB0AC9022B43C90A294337
:100730001E010901040F130F050121431701880B46
:10074000820391432D098C46A90B1E438A039543CE
:10075000B30B9A0396433F09BA0B9403A74302963F
:100760002E467E430497B6464E19D7190C4601967D
:10077000544305977E43371B7646BF1B3601B6466A
:10078000BE0B361900967646BC043719009C01D37F
:10079000641C00946400002F01D001263443029EA3
:1007A000049F754366467E430496760034196E00B6
:1007B00034190094029C019E1C196643751BAE46B9
:1007C000069465464519059C05956C435943754645
:1007D0000891691A0191049E01465143A41B04919A
:1007E000611A009C0791E10605D0610901221143BD
:1007F00002E072E06EE06109089D00272C0A2D06D8
:100800006918049D7C412A0A2D066918019D6241E0
:10081000AC0DAD026D185441079A910D9202551915
:100820006141029A644658435443069B059A5A43D1
:10083000121A131B9A0E9B015B187A41010B0005DB
:10084000C3185141220A200644195A419A4200D243
:10085000491C01204002814203D315230226F6439E
:1008600002E014230326F6432020C51AA9401746A8
:10087000AF40DA400A4320460399D8400914731860
:1008800019055118039A3843D2075140AC4009D09A
:100890000122944006D30022401C5141002C01D17A
:1008A000400840001E4A934212D301220398920648
:1008B000904207DB0520400709181A480143C0127F
:1008C000414004E0032040070818C10FC907002079
:1008D00009B0F0BD0020F107FAE705180C464C41BD
:1008E00011486D42A04115D394181A465A410E483A
:1008F000644290410ED301204A004005824209D350
:100900005A00824206D35940C90F084AC90700203D
:100910001143DDE700200649DAE700000000FF0789
:10092000FE070000FFFFFF7F0000E0FF0000F07FF8
:100930000000F87F10B500F05DFA006810BD10B53A
:10094000044600F057FA046010BD0000F0B5F94D00
:100950000C091E092C402E402F468BB0A7437DD09A
:10096000B543FCD0002E7AD0002CFCD00D465D4063
:10097000ED0F2543AC1BFF25AD0464190894C50297
:10098000440DC9022143500DDC0204430120C0077D
:1009900001430443D2020191200C110C00958C46B6
:1009A000010423468B430A9161460904E24D8A43C0
:1009B0000991010A7D4449198039097805464D435A
:1009C00001266D18F605751B6943C90C640B891C5B
:1009D0004C436418B5012C1B250C2E04B4434C4326
:1009E0004D43210C691889090591009DE90701D043
:1009F0000121C90704912C4601996708CD072F43AF
:100A00004C08059DE10B4D432D0C29466646754368
:100A100002950D4645432E46029D7D1BB44100952F
:100A20000D465D4301942C0C2F040D465543AE46F4
:100A30002D0C3D43029503947546049C2D04641BC4
:100A4000049406D2029C039D641C00267541039504
:100A5000029401AC70CC009F7D1B01E03EE162E19D
:100A6000B44109040095079101940599A4086143D4
:100A7000090C0C464443650BE7040C466646744378
:100A8000A646640B3C43039502947446049DE4041B
:100A90002C1B049406D2029C039D641C0026754105
:100AA0000395029401AC70CC009F7D1BB44101946E
:100AB0000C465C430095650FE7000C465443A64680
:100AC000640F3C43039502947446049DE4002C1B80
:100AD000049406D2029C039D641C00267541039574
:100AE000029401AC70CC009F7D1BB441AE09AF06EF
:100AF000049DC900AD092F43049DA406AD060495CD
:100B0000079D344369180791059DE10B4D432D0C5A
:100B100029466646754302950D4645432E46029D7D
:100B20007D1BB44100950D465D4301942C0C2F04B0
:100B30000D465543AE462D0C3D4302950394754634
:100B4000049C2D04641B049406D2029C039D641C27
:100B5000002675410395029401AC70CC009F7D1B6B
:100B6000B44101948C050694079C890A611800958C
:100B70000791019C0599A4086143090C0D46454362
:100B8000680BEF040D46644665436C0B3C43049FC1
:100B9000ED047D1BAC4602D20025641C6841009E1A
:100BA000019D371B85410846584301950C46460F69
:100BB000C5005443600F28436546E4002C1B02D255
:100BC0000025401C6E41019D3F1AB5412846BD09D4
:100BD000800628438446A009BF064E020699A40653
:100BE00076180743079D002068410A99079019432A
:100BF0000020099B00906046FF1913434041E20F1B
:100C000064003A43A4460446D71A8C41A04203D953
:100C10000120009020463A46C70F94184041624692
:100C2000D20F2243644664000494009CBE466400D4
:100C3000D71AA446044602978C417746002F01D16B
:100C4000A04204D96046401C8446029A2046C40F44
:100C5000A64694184041049A0546D20F22436446A2
:100C60006400D31A8D417146002901D1A84202D9EE
:100C700028461A46641C10430122002800D016435F
:100C800061020020079B891904465C410223002C65
:100C900002DB491813466441089DCE0A2D145D19E4
:100CA0004B056705E10A2C050D1908993E43C90754
:100CB0006940002B08D0934006D30022761C514196
:100CC000002B01D1760876001C4A002D43DB15422B
:100CD00041D0AA433FD030460BB0F0BD06180D46B8
:100CE0004D41174C7642AC411AD395181C465C41D5
:100CF000134A6D42A24113D3012252054C00D44243
:100D00000AD15C00D4420BD04B4002D59202114371
:100D1000E2E749004908DFE75940C90FC90718E071
:100D200000200849D8E7054801420DD10342F7D019
:100D3000F2E700000000FF07C81600000000F07F87
:100D40000000E0FF0000F87F114859400143C01245
:100D500041400020C0E70123089A9B069A4205DC27
:100D6000032252078918C90FC907B5E705225207A0
:100D70008918074A1143D2125140ADE770B51546A4
:100D80001C4602460B4628462146FFF7DFFD70BD94
:100D9000FFFFFF7F70B505464800440D124B002051
:100DA000002C0AD0634008D09A4206DA6642B2426A
:100DB00003DD12054019514170BD002C08D0002BF5
:100DC00009D0C90FC907002AF6DB084A114370BDD4
:100DD000C90FC90770BD28460A03104302D000207E
:100DE000034970BD284670BDFF0700000000F07F7A
:100DF0000000F87F0048704700000020F8B5264C3E
:100E00004E00069DA6420AD8A64201D1002806D16E
:100E10005E00A64203D8A6420AD1002A08D00D24BB
:100E20002404254233D02946002000F0E2F8F8BD22
:100E30000C461C4311D4994207D0C81A02D3EFF3D1
:100E40000080F8BDEFF30080F8BD801A02D3EFF305
:100E50000080F8BDEFF30080F8BD09242407E50009
:100E60008B4207D0581A02D3EFF3008006E0EFF36D
:100E7000008007E0101A03D3EFF30080A04303E0E3
:100E8000EFF30080A043284380F30088F8BD00956D
:100E900000F0C6F8F8BD00000000E0FFF0B53D4BE3
:100EA00002460C461C400020002C63D03A4D8B4378
:100EB00066D000296BDB0B0D1D05A94301252D050F
:100EC00029430124FD33E34001D392184941FF3304
:100ED00081339C468B02940D0121234389074C42A8
:100EE000920200271B198C105D1A04D42D1B02D40A
:100EF0002B466500491992185B416408F4D15C1ACD
:100F000008D40125ED07EE175519744102D42A467D
:100F10002346491C94185B41012292071D46E61B9B
:100F20008D4106D4B61A854103D42B46550034466C
:100F30007F1924195B415208802AEFD1234300D046
:100F4000022338460A22D04001D3012213438A05E6
:100F500010436246890A12058918002B09D0012224
:100F6000D34002D30022401C5141002B01D1400844
:100F70004000F0BD0B03134307D0C90FC907F0BDF4
:100F80000803104303D1002901DB1046F0BD002007
:100F90002946F0BD0000F07F0000F87F0048704750
:100FA000000000207546FFF7F9FFAE4605006946D0
:100FB0005346C008C000854618B020B5FFF7CEF8EC
:100FC00060BCB64600260027C0C5C0C5C0C5C0C5A8
:100FD000C0C5C0C5C0C5C0C5403D490849008D4613
:100FE000704710B50446C046C0462046FFF7A5F836
:100FF00010BDC80212D54803400F002804D0C80312
:10100000C043012188407047EFF3008000010009D0
:1010100003210907084380F30088704700207047C8
:1010200010B500200249029A00F004F810BD00003B
:101030000000F87F10B50C461107090F092904D0EC
:101040000A290AD008290CD104E011460820FFF72C
:10105000D0FF06E0510606D501E0510601D501207A
:10106000C007214610BDD10607D501010909CC08EA
:101070004907000E0006044309E0410F200249071A
:10108000000A0143200E00061D22D14101430846FB
:10109000E7E7000001491820ABBEFEE7260002008A
:1010A0007047704782B0019000200090FFE70098E1
:1010B0000199884205D2FFE7FFE70098401C0090A5
:1010C000F5E702B070470000B0B5A8B00020279047
:1010D00077490A6801239C0422430A600E2121916A
:1010E00074490A6822900C68239008689D03284080
:1010F000800B24900868D9030840800B25906E4827
:1011000001686E4D294301600168FF252D06A94342
:1011100001606B4801685B021943016069482690D1
:10112000FFE72598199001201A9024991B9100211E
:101130001C911D9023981E901F9122982090109131
:1011400007200E900D91FFE70D98072836D8FFE78E
:101150000D98800019A90858FFF7C5FA0E9A099052
:1011600010460891FFF7BFFA01229207002307906B
:10117000184606911146079A069B00F0E5F9099A70
:1011800005901046089B04911946059A049BFFF7A9
:10119000ADFA109A039010460291FFF7A4FA039A51
:1011A000029BFFF723FAFFF751FA10900E98401EAA
:1011B0000E90FFE70D98401C0D90C5E700200C90A5
:1011C000FFE70C9808282FD8FFE710982199FEF721
:1011D000D7FF0F910F990C9A920011AB99500F996C
:1011E000109A511A10911099219A019008461146AF
:1011F000FEF7C6FF10901098219988420FD2FFE7A2
:101200000C98401C0C9010980C99890011AA505011
:1012100010982199884201D2FFE705E0FFE7FFE738
:101220000C98401C0C90CCE700200E9007200A90F0
:10123000FFE70A98002832D3FFE70A98800011A937
:1012400008580B900E98002817D1FFE70A988000E5
:1012500011A908580E900E9800280DD0FFE70B98A2
:1012600000F036F81948FFF71DFF6B480168016070
:101270001448FFF717FFFFE70CE00B9800F028F881
:101280001248FFF70FFF6448016801600D48FFF73F
:1012900009FFFFE7FFE70A98401E0A90C9E75E488A
:1012A00001688022114301600748FFF7FBFE38E721
:1012B0001410024010040048000400485555040072
:1012C0001404004850C3000020A10700400D030093
:1012D00081B000900098002806D1FFE74E480168D1
:1012E0003F2211430160FFE70098012806D1FFE784
:1012F00049480168062211430160FFE7009802286F
:1013000006D1FFE7444801685B2211430160FFE713
:101310000098032806D1FFE73F4801684F22114398
:101320000160FFE70098042806D1FFE73A4801680A
:10133000662211430160FFE70098052806D1FFE708
:10134000354801686D2211430160FFE700980628C7
:1013500006D1FFE7304801687D2211430160FFE7B5
:101360000098072806D1FFE72B48016807221143A0
:101370000160FFE70098082806D1FFE726480168CA
:101380007F2211430160FFE70098092806D1FFE79B
:10139000214801686F2211430160FFE700980A2885
:1013A00006D1FFE71C480168772211430160FFE77F
:1013B00000980B2806D1FFE7174801687C221143EB
:1013C0000160FFE700980C2806D1FFE7124801688A
:1013D000392211430160FFE700980D2806D1FFE78D
:1013E0000D4801685E2211430160FFE700980E2856
:1013F00006D1FFE708480168792211430160FFE741
:1014000000980F2806D1FFE70348016871221143B5
:101410000160FFE701B07047180400484900CA02A4
:101420000243100000D004204A0D01D001221043D5
:10143000044A490D914201D102210843012800D1FB
:1014400005207047FF070000F8B504464F1EC8008E
:101450000838211815461E46086849683A4606238A
:101460009A4310D02A463346FFF740F93A46D20055
:10147000083AA3181A687F1E5B68FFF7B7F80622C0
:101480003B469343EED1022F23D0042F11D0062FD9
:101490002FD12A463346FFF729F9E36AA26AFFF7FC
:1014A000A5F82A463346FFF721F9636A226AFFF757
:1014B0009DF82A463346FFF719F9E369A269FFF759
:1014C00095F82A463346FFF711F963692269FFF759
:1014D0008DF82A463346FFF709F9E368A268FFF75B
:1014E00085F82A463346FFF701F963682268FFF75B
:1014F0007DF8F8BD002210B5134610460149FFF7EC
:1015000025FA10BD0000F03F10B5FFF76FF810BDD1
:10151000002210B5134610461146FFF717FA10BD0A
:1015200010B50721024A00200907FFF733FC10BD60
:1015300001030000034A10B500201107FFF72AFC41
:1015400010BD000001FDFFFFF0B51FB496B084464A
:101550000C460246199D18980390490068006300E4
:10156000490840080193002A01D0012600E0002626
:101570009E19FE4BF6185B109E422BD36E00039F04
:101580000296002F00D00127F719F84EF84BBE192C
:101590009E421FD3039E0346F64F334309D03B467A
:1015A0009C4201D1002A04D0019B002A05D00126CB
:1015B00004E0002039461BB0F0BD00269E19EE4B1A
:1015C0009E4207D8039F029E002F00D00127F619E4
:1015D0009E4207D92B4660462146189AFFF794FF92
:1015E0001BB0F0BD0023002C29DAE44EB04226DA0D
:1015F000E34EB04201DB022321E0DE4EB0421EDBAF
:10160000E04E070DBE19142E09DD3427BF1B039EC3
:10161000FE400196BE40039FBE420BD00FE0039FE9
:10162000002F0CD11427BF1B0646FE400196BE407A
:10163000864204D1019BDE07F60F02239B1B0E4658
:10164000164318D1002D16DA002C03D0022B01D03E
:10165000012B06D00220FFF772F9FFF74BFF1BB0FA
:10166000F0BD0220FFF76BF9FFF744FF0122D2071C
:1016700051401BB0F0BD039E002E61D1BF4EB04261
:1016800020D1C148844201D1002A08D0B948814202
:1016900009DB002D10DB189829461BB0F0BD002097
:1016A000B4491BB0F0BD002D06DA01222946D2074D
:1016B000189851401BB0F0BDB44979440868496896
:1016C0001BB0F0BDAB4FB84225D1002D1FDA002969
:1016D00004D0B14212D1002A09D018E0002A72D1F8
:1016E000A649E20F0020D20711431BB0F0BD002035
:1016F000E20F0146D20711431BB0F0BDB14206DA3A
:10170000234600203946FFF721F91BB0F0BD1046F3
:1017100021461BB0F0BDB14212DA0126B607B54230
:1017200003D1234610461946FEE3994EB54207D130
:10173000261E05DB1046314600F004FC1BB0F0BD50
:1017400067007F081646002A40D100290AD08B4A3C
:10175000914229D1002C0EDD002D1CDB002011460A
:101760001BB0F0BD022B16D0002C14D0012B12D1CF
:10177000002C14DB0FE0002C28DA002D09DB012BF4
:1017800003D000207D491BB0F0BD002081491BB073
:10179000F0BD012B03D0002001461BB0F0BD00209E
:1017A0000121C9071BB0F0BD724A91420ED1002C35
:1017B00001DA002B17D0022B06D00020C043FEF721
:1017C0008AFF1BB0F0BD90E20120F8E7E217521C3F
:1017D00094461A4307D000220892664C62465B1E6C
:1017E0001A4307D009E00120FFF7A9F8FFF790FEA0
:1017F0001BB0F0BD0022644C0892674A90427DDD28
:10180000664B674A98421FDD914202DC002D05DBE2
:101810004DE05848814217DB002D48DD0220FFF7DC
:101820008EF8FFF77DFE05460E460022534B2146FB
:101830000898FEF75BFF084671004908C00FC00713
:10184000014328461BB0F0BD914215DA002D2EDA77
:101850000220FFF774F8FFF763FE05460E460022EC
:10186000464B21460898FEF741FF72005208C80F08
:10187000C0070243114617E03E4B994223DD002D7D
:1018800015DD0220FFF75BF8FFF74AFE05460E461E
:1018900000223A4B21460898FEF728FF08467100BF
:1018A0004908C00FC007014328461BB0F0BD022005
:1018B000FFF745F8FFF73EFE49004908E20FD2075F
:1018C00011431BB0F0BD002230463946FEF79BFEA7
:1018D000012205460E46D243FFF75CFA314A324BED
:1018E000FEF79CFE2A463346FEF700FF0022284BF7
:1018F000FEF794FE07462A46334600E064E0039173
:1019000010461946FEF7F2FE3A46039BFEF7EEFE3E
:101910000746032209915207244B28463146FEF719
:10192000E5FE07910C90224A204B38460999FEF7B4
:10193000DDFE074601911F4A1F4B28463146FEF740
:10194000D5FE3A46019BFEF75EFE07460B46024671
:10195000099107990C98FEF749FE00250E46284686
:10196000079B0C9AFEF74FFE3A4627E0FFFF1F0049
:10197000FFFF0F000000F03F0000E0FF0000F07FDD
:101980000000404301FCFFFF0000F0BF420A0000DE
:101990000000E03F0000F0FF0000E0410000F043E5
:1019A000FFFFEF3F555555555555D53F4715F73F67
:1019B000FE822B6544DF5DF80BAE543E099BFEF7BB
:1019C0002DFE02460B4652E1012500202D05A942BD
:1019D00007DA352230463946FFF7DCF9064634206F
:1019E000C0430A151218FE48101803900803FD4959
:1019F000000B01430F46FC49884201DC002003E054
:101A0000FA49884202DA0120119005E00020119085
:101A10000398401C7F1B039011980597C200F4485F
:101A20000F927844801843680268394630460D9317
:101A30000292FEF7E8FD07910C9030460D9B029A4A
:101A40000599FEF7D3FD02460B460020E549FEF757
:101A50007DFF09910490079B0C9AFEF747FE1290B8
:101A600000201090E3480D46784400680E90012154
:101A700078104907084311990D9B890440180121EA
:101A8000C90447183946029A0E98FEF7BCFD324643
:101A9000059BFEF7C3FD02460B4629461098FEF74C
:101AA00025FE064602913B4629460E9A1098FEF7FF
:101AB0001DFE079B0C9AFEF7B1FD3246029BFEF716
:101AC000A2FD099B049AFEF711FE0591129A0A9055
:101AD0002B4610461946FEF709FE06460246C64842
:101AE0000F460B4606217844FFF7AEFC32463B46D4
:101AF0000091049010461946FEF7F8FD009B049AE9
:101B0000FEF7F4FD06460F462B461946129A10982A
:101B1000FEF76CFD059B0A9AFEF7E8FD32463B4650
:101B2000FEF764FD109A079104902B461046194663
:101B3000FEF7DCFDB14E0022334609910290FEF71C
:101B400055FD079B049AFEF751FD0020074602460B
:101B500033460091FEF757FD099B029AFEF753FDAD
:101B6000079B049AFEF75AFD06460D913A46294610
:101B7000009B1098FEF7BAFD07910C902B4630465B
:101B8000129A0D99FEF7B2FD05460E463A46009BA5
:101B900005990A98FEF7AAFD33462A46FEF726FD68
:101BA00002460B460746099107990C98FEF71EFD61
:101BB00000250E462846079B0C9AFEF724FD3A4660
:101BC000099BFEF72BFD07460722099152078C4B14
:101BD00031462846FEF78AFD07910090894A884BD6
:101BE00038460999FEF782FD07460191864A874BE0
:101BF00031462846FEF77AFD3A46019BFEF7F6FC91
:101C0000834B7B440F9A9B181A685B68FEF7EEFCC7
:101C1000029009910398FEF75EFD05910490099BDF
:101C2000029A07990098FEF7E1FC7A4B7B440F9AE1
:101C30009B181A685B6817460393FEF7D7FC059B51
:101C4000049AFEF7D3FC0E462846059B049AFEF73D
:101C5000DAFC3A46039BFEF7D6FC079B009AFEF798
:101C6000D2FC099B029AFEF7D9FC02460B46199951
:101C700000200C900F461898FEF738FD0291049052
:101C80003B460C9A19991898FEF7BDFC2A46334634
:101C9000FEF72CFD029B049AFEF7A8FC09910E901A
:101CA0002A46334639460C98FEF720FD06460F4675
:101CB000099B0E9AFEF79AFC574A0D46914220DB8B
:101CC0005242AA18024310D132463B46FEF79BFC13
:101CD00004900391514A524B09990E98FEF786FCE5
:101CE000039B049A00F052F91ED20220FEF727FE51
:101CF000FFF716FC49004908E20FD20711431BB059
:101D0000F0BD6A00474B52089A420DD3464AAA18C2
:101D1000024300D0CBE532463B46FEF774FC099BFC
:101D20000E9A00F033F9F5D96800002340082C49D9
:101D30000393020D3D4B5218984223DD012000050C
:101D4000521CD04042195000400D40183849794487
:101D5000096813468C463749C1408B431203012161
:101D6000120B090551181422101AC1400391002DBD
:101D700001DA48420390624630463946FEF743FC9A
:101D800006460F4632463B4609990E98FEF72EFC52
:101D900000252A46284B28460591FEF7A7FC079107
:101DA0000C90264A264B28460599FEF79FFC009189
:101DB000029032463B4628460599FEF724FC099BD3
:101DC0000E9AFEF72BFC1F4A1F4BFEF78FFC009B61
:101DD000029AFEF70BFC07460B460246099135E0D6
:101DE00001FCFFFF0000F03F8E9803007AB60B0065
:101DF000D2050000940600003E05000000000840E7
:101E000009C7EE3FFD033ADCF5015B14E02F3EBE4F
:101E100012040000D803000000009040FE822B65F1
:101E20004715973C00CC904000346F3F0000E03FE6
:101E3000AE030000FFFF0F00432EE63F396CA80CF5
:101E4000615C20BEEF39FAFE422EE63F07990C98FE
:101E5000FEF7CCFB05460E46079B0C9AFEF7D3FB1C
:101E60003A46099BFEF7DAFB09912A4633460E9063
:101E700010461946FEF73AFC074602462F480B4625
:101E8000059105217844FFF7DFFA3A46059BFEF7F6
:101E90002DFC2A463346FEF7C1FB07460191284632
:101EA0003146099B0E9AFEF721FC099B0E9AFEF71C
:101EB0009DFB012304910C9000229B073846019959
:101EC000FEF7A1FB05910E903A4628463146019B4C
:101ED000FEF70CFC059B0E9AFEF738FD049B0C9A4E
:101EE000FEF791FB2A463346FEF78DFB0022144B8A
:101EF000FEF794FB064603980D46000541190915A7
:101F0000002912DC30462946039AFEF743FFFFF70B
:101F100085FA042801D1FFF70DFB30462946039AC4
:101F2000FEF738FF064601E004E029180B4632466A
:101F300021460898FEF7DAFB1BB0F0BDD001000087
:101F40000000F03FF8B506460C46FEF7A7FF051E59
:101F50000F4600D00120014349000B484908411AAF
:101F6000C90F0DD0002E01D0012100E000210C434B
:101F700061004908401AC00F02D10120FEF7DFFCC2
:101F800028463946F8BD00000000F07F70B50125F5
:101F90002D051C000C4310D4EC4206D4AC420AD4EC
:101FA0008B4200D070BD824270BDEB4217D4E94233
:101FB00015D48B4270BD9B4270BDEC4206D5AC423D
:101FC000F9D5994200D070BD904270BD6D005C00A3
:101FD000EC4204D24C00EC4201D2994270BD0FB4E5
:101FE0000CBC03BC024C30B4FEF708FF30BC70BD23
:101FF0001900160400000000000000000000F03F7F
:10200000000000000000F83F000000000000000099
:102010000000004003B8E23F0000000000000000A4
:1020200006D0CF43EBFD4C3E033333333333E33F32
:10203000FFAB6FDBB66DDB3F4D268F515555D53F5E
:1020400001411DA96074D13F65DBC9934A86CD3F2C
:10205000EF4E454A287ECA3F3E5555555555C53F1A
:1020600093BDBE166CC166BF2CDE25AF6A56113F0C
:10207000F16BD2C541BDBBBED0A4BE726937663E0E
:1020800080807F7E7D7C7B7A7978777676757473B5
:10209000727171706F6E6E6D6C6C6B6A6A69686874
:1020A000676666656464636362616160605F5F5E0A
:1020B0005E5D5D5C5C5B5B5A5A5959585857575680
:1020C00056555555545453535252525151505050E5
:1020D0004F4F4F4E4E4D4D4D4C4C4C4B4B4B4A4A37
:1020E0004A4949494848484747474746464645457B
:1020F00045444444444343434342424242414141B4
:10210000000000000000000018210008000000206E
:08211000600600000401000854
:04000005080000C12E
:00000001FF
