:020000040800F2
:100000006006002049010008510100085301000862
:1000100000000000000000000000000000000000E0
:100020000000000000000000000000005501000872
:1000300000000000000000005701000859010008FE
:100040005B0100085B0100085B0100085B01000820
:100050005B0100085B0100085B0100085B01000810
:100060005B0100085B0100085B0100085B01000800
:100070005B0100085B0100085B0100085B010008F0
:100080005B0100085B0100085B0100085B010008E0
:100090005B0100085B0100085B0100085B010008D0
:1000A0005B0100085B0100085B0100085B010008C0
:1000B0005B0100085B0100085B0100085B010008B0
:1000C00000F002F800F030F80CA030C8083824180E
:1000D0002D18671EA246AB4654465D46AC4201D180
:1000E00000F022F87E460F3EB6460FCC0126334282
:1000F00000D0FB1A3343A246AB46184774030000F6
:10010000840300000023002400250026103A01D3B8
:1001100078C1FBD8520700D330C100D50B607047BF
:100120001FB51FBD10B510BD00F02DF81146FFF72B
:10013000F7FF00F06DF800F045F803B4FFF7F2FFA9
:1001400003BC00F04BF80000074880470748004711
:10015000FEE7FEE7FEE7FEE7FEE7FEE704480549A7
:10016000054A064B70470000EB010008C10000087B
:100170006000002060060020600200206002002075
:10018000704770477047754600F024F8AE4605008A
:1001900069465346C008C000854618B020B5FFF731
:1001A000DDFF60BCB64600260027C0C5C0C5C0C57F
:1001B000C0C5C0C5C0C5C0C5C0C5403D490849008F
:1001C0008D46704710B50446C046C0462046FFF72E
:1001D000B4FF10BD004870470000002001491820FE
:1001E000ABBEFEE7260002007047704782B0019068
:1001F00000200090FFE700980199884205D2FFE7B0
:10020000FFE70098401C0090F5E702B0704700003F
:10021000B0B59EB000201D907A4801680122930479
:100220001943016078480168784B194301607849A7
:100230000B68784C23430B600168FF231B0699432E
:1002400001607548016812021143016073481C90F7
:10025000734810A93CC83CC13CC83CC1714808A9BE
:100260003CC83CC13CC83CC1FFE76F480168032261
:1002700012031140090B1B91016889B2C90B1A9135
:100280000068012189030840800B19901998012802
:100290005BD0FFE71A98012833D0FFE70120000266
:1002A0006249086000200790FFE70798072810D8E8
:1002B000FFE70798800010A908585C4908601C985F
:1002C0001B998840FFF792FFFFE70798401C0790B3
:1002D000EBE700200690FFE70698072810D8FFE715
:1002E0000698800008A90858504908601C981B9976
:1002F0008840FFF77BFFFFE70698401C0690EBE77E
:1003000022E0012000024949086000200590FFE733
:100310000598072817D8FFE70598800010A9085806
:10032000424908601C981B9A90400191FFF75EFFBC
:100330000598800008A9085801990860FFE705980A
:10034000401C0590E4E7FFE75AE01A98012833D0F3
:10035000FFE7012000023549086007200490FFE70D
:100360000498002810D4FFE70498800010A90858CA
:100370002E4908601C981B998840FFF737FFFFE75C
:100380000498401E0490EBE707200390FFE70398D2
:10039000002810D4FFE70398800008A908582349D3
:1003A00008601C981B998840FFF720FFFFE703981F
:1003B000401E0390EBE722E0012000021B49086089
:1003C00007200290FFE70298002817D4FFE7029861
:1003D000800010A90858154908601C981B9A904085
:1003E0000091FFF703FF0298800008A908580099C0
:1003F0000860FFE70298401E0290E4E7FFE7FFE78E
:1004000033E7C0461410024000040048555501006F
:1004100008040048555500001404004850C300006B
:100420003004000850040008100400481804004874
:100430000100000002000000040000008000000035
:100440004000000020000000100000000800000034
:100450000000010000000200000004000000800015
:100460000000400000002000000010000000080014
:10047000800400080000002060060000040100085D
:04000005080000C12E
:00000001FF
