:020000040800F2
:100000006006002049010008510100085301000862
:1000100000000000000000000000000000000000E0
:100020000000000000000000000000005501000872
:1000300000000000000000005701000859010008FE
:100040005B0100085B0100085B0100085B01000820
:100050005B0100085B0100085B0100085B01000810
:100060005B0100085B0100085B0100085B01000800
:100070005B0100085B0100085B0100085B010008F0
:100080005B0100085B0100085B0100085B010008E0
:100090005B0100085B0100085B0100085B010008D0
:1000A0005B0100085B0100085B0100085B010008C0
:1000B0005B0100085B0100085B0100085B010008B0
:1000C00000F002F800F030F80CA030C8083824180E
:1000D0002D18671EA246AB4654465D46AC4201D180
:1000E00000F022F87E460F3EB6460FCC0126334282
:1000F00000D0FB1A3343A246AB461847C0060000A7
:10010000D00600000023002400250026103A01D369
:1001100078C1FBD8520700D330C100D50B607047BF
:100120001FB51FBD10B510BD00F02DF81146FFF72B
:10013000F7FF00F06DF800F045F803B4FFF7F2FFA9
:1001400003BC00F04BF80000074880470748004711
:10015000FEE7FEE7FEE7FEE7FEE7FEE704480549A7
:10016000054A064B70470000EB010008C10000087B
:100170006000002060060020600200206002002075
:10018000704770477047754600F024F8AE4605008A
:1001900069465346C008C000854618B020B5FFF731
:1001A000DDFF60BCB64600260027C0C5C0C5C0C57F
:1001B000C0C5C0C5C0C5C0C5C0C5403D490849008F
:1001C0008D46704710B50446C046C0462046FFF72E
:1001D000B4FF10BD004870470000002001491820FE
:1001E000ABBEFEE7260002007047704782B0019068
:1001F00000200090FFE700980199884205D2FFE7B0
:10020000FFE70098401C0090F5E702B0704700003F
:1002100010B58EB000200D90BD48016801229304F6
:1002200019430160BB480168BB4B19430160BB49DE
:100230000B68BB4C23430B600168FF231B069943EB
:100240000160B8480168120211430160B6480C9081
:10025000FFE7B6480168032212031140090B0B9116
:1002600001680122D3031940890B0A9100689103A8
:100270000840800B09900998012800D043E10A98B2
:10028000012800D0BAE0AA480168012211430160A8
:100290000C990B9B9940089008460792FFF7A6FF20
:1002A000089801680222114301600C990B9A914051
:1002B0000846FFF79BFF089801680422114301607C
:1002C0000C990B9A91400846FFF790FF0898016837
:1002D0008022114301600C990B9A91400846FFF768
:1002E00085FF089801684022114301600C990B9A20
:1002F00091400846FFF77AFF0898016820221143D1
:1003000001600C990B9A91400846FFF76FFF08981F
:1003100001681022114301600C990B9A9140084624
:10032000FFF764FF089801680822114301600C99E7
:100330000B9A91400846FFF759FF08980168079A01
:100340001304194301600C990B9B99400846FFF771
:100350004DFF08980168079A5304194301600C99EE
:100360000B9B99400846FFF741FF08980168079AE0
:100370009304194301600C990B9B99400846FFF7C1
:1003800035FF08980168079AD305194301600C9955
:100390000B9B99400846FFF729FF08980168079AC8
:1003A0009305194301600C990B9B99400846FFF790
:1003B0001DFF08980168079A5305194301600C99BD
:1003C0000B9B99400846FFF711FF08980168079AB0
:1003D0001305194301600C990B9B99400846FFF7E0
:1003E00005FF08980168079AD304194301600C9926
:1003F0000B9B99400846FFF7F9FE83E0EE48016841
:100400000122114301600C990B9B9940069008460C
:100410000592FFF7EBFE06980168059A130419434D
:10042000016001680223194301600C990B9B9940FC
:100430000846FFF7DBFE06980168059A5304194346
:10044000016001680423194301600C990B9B9940DA
:100450000846FFF7CBFE06980168059A93041943F6
:10046000016001688023194301600C990B9B99403E
:100470000846FFF7BBFE06980168059AD3051943A5
:10048000016001684023194301600C990B9B99405E
:100490000846FFF7ABFE06980168059A93051943D5
:1004A000016001682023194301600C990B9B99405E
:1004B0000846FFF79BFE06980168059A5305194305
:1004C000016001681023194301600C990B9B99404E
:1004D0000846FFF78BFE06980168059A1305194335
:1004E000016001680823194301600C990B9B994036
:1004F0000846FFF77BFE06980168059AD304194366
:100500000160FFE756E10A98012813D0CEE0C0460B
:10051000141002400004004855550100080400482A
:10052000555500001404004850C300001004004852
:1005300018040048A04801680822114301600C9982
:100540000B9A914004900846FFF750FE049801680A
:100550001022114301600C990B9A91400846FFF755
:1005600045FE049801682022114301600C990B9B01
:10057000994008460392FFF739FE0498016840222B
:10058000114301600C990B9A91400846FFF72EFE2B
:10059000049801688022114301600C990B9A9140E4
:1005A0000846FFF723FE0498016804221143016006
:1005B0000C990B9A91400846FFF718FE04980168C1
:1005C000039A114301600C990B9B99400846FFF771
:1005D0000DFE049801680122114301600C990B9BE8
:1005E000994008460292FFF701FE04980168029ABA
:1005F000D304194301600C990B9B99400846FFF7FF
:10060000F5FD04980168029A1305194301600C99DD
:100610000B9B99400846FFF7E9FD04980168029A90
:100620005305194301600C990B9B99400846FFF74D
:10063000DDFD04980168029A9305194301600C9945
:100640000B9B99400846FFF7D1FD04980168029A78
:10065000D305194301600C990B9B99400846FFF79D
:10066000C5FD04980168029A9304194301600C992E
:100670000B9B99400846FFF7B9FD04980168029A60
:100680005304194301600C990B9B99400846FFF7EE
:10069000ADFD04980168029A1304194301600C9996
:1006A0000B9B99400846FFF7A1FD82E04248016894
:1006B0000822114301600C990B9A91400190084661
:1006C000FFF794FD019801680122D30419430160EA
:1006D00001681023194301600C990B9B994008464F
:1006E0000092FFF783FD01980168009A13051943F2
:1006F000016001682023194301600C990B9B99400C
:100700000846FFF773FD01980168009A53051943E5
:10071000016001684023194301600C990B9B9940CB
:100720000846FFF763FD01980168009A9305194395
:10073000016001688023194301600C990B9B99406B
:100740000846FFF753FD01980168009AD305194345
:10075000016001680423194301600C990B9B9940C7
:100760000846FFF743FD01980168009A9304194376
:10077000016001680223194301600C990B9B9940A9
:100780000846FFF733FD01980168009A53041943A6
:1007900001600168114301600C990B9B9940084668
:1007A000FFF724FD01980168009A130419430160C2
:1007B000FFE7FFE74DE5C04618040048CC070008F6
:0C07C0000000002060060000040100089A
:04000005080000C12E
:00000001FF
