:020000040800F2
:100000006006002049010008510100085301000862
:1000100000000000000000000000000000000000E0
:100020000000000000000000000000005501000872
:1000300000000000000000005701000859010008FE
:100040005B0100085B0100085B0100085B01000820
:100050005B0100085B0100085B0100085B01000810
:100060005B0100085B0100085B0100085B01000800
:100070005B0100085B0100085B0100085B010008F0
:100080005B0100085B0100085B0100085B010008E0
:100090005B0100085B0100085B0100085B010008D0
:1000A0005B0100085B0100085B0100085B010008C0
:1000B0005B0100085B0100085B0100085B010008B0
:1000C00000F002F800F030F80CA030C8083824180E
:1000D0002D18671EA246AB4654465D46AC4201D180
:1000E00000F022F87E460F3EB6460FCC0126334282
:1000F00000D0FB1A3343A246AB46184774030000F6
:10010000840300000023002400250026103A01D3B8
:1001100078C1FBD8520700D330C100D50B607047BF
:100120001FB51FBD10B510BD00F02DF81146FFF72B
:10013000F7FF00F06DF800F045F803B4FFF7F2FFA9
:1001400003BC00F04BF80000074880470748004711
:10015000FEE7FEE7FEE7FEE7FEE7FEE704480549A7
:10016000054A064B70470000EB010008C10000087B
:100170006000002060060020600200206002002075
:10018000704770477047754600F024F8AE4605008A
:1001900069465346C008C000854618B020B5FFF731
:1001A000DDFF60BCB64600260027C0C5C0C5C0C57F
:1001B000C0C5C0C5C0C5C0C5C0C5403D490849008F
:1001C0008D46704710B50446C046C0462046FFF72E
:1001D000B4FF10BD004870470000002001491820FE
:1001E000ABBEFEE7260002007047704782B0019068
:1001F00000200090FFE700980199884205D2FFE7B0
:10020000FFE70098401C0090F5E702B0704700003F
:10021000B0B59EB000201D907A4801680122930479
:100220001943016078480168784B194301607849A7
:100230000B68784C23430B600168FF231B0699432E
:1002400001607548016812021143016073481C90F7
:10025000734811A93CC83CC13CC83CC1714809A9BC
:100260003CC83CC13CC83CC1FFE76F480168032261
:1002700012031140090B1B91016889B2C90B1A9135
:100280000068012189030840800B19901998012802
:100290005BD1FFE71A98012833D1FFE700200890CF
:1002A000FFE70898082812D8FFE70898800011A9EE
:1002B00008585E490A6802430A601C981B998840E6
:1002C000FFF794FFFFE70898401C0890E9E700203B
:1002D0000790FFE70798082812D8FFE707988000E3
:1002E00009A9085851490A6802430A601C981B99D9
:1002F0008840FFF77BFFFFE70798401C0790E9E77E
:1003000022E000200690FFE7069808281BD8FFE7A8
:100310000698800011A9085844490A6802430A60F7
:100320001C981B9A90400291FFF760FF069880008E
:1003300009A9085802990A6802430A60FFE706986B
:10034000401C0690E0E7FFE75AE01A98012833D1F5
:10035000FFE708200590FFE70598002812D0FFE787
:100360000598800011A9085830490A6802430A60BC
:100370001C981B998840FFF739FFFFE70598401E3E
:100380000590E9E708200490FFE70498002812D0C0
:10039000FFE70498800009A9085824490A68024325
:1003A0000A601C981B998840FFF720FFFFE704981C
:1003B000401E0490E9E722E008200390FFE703983D
:1003C00000281BD0FFE70398800011A9085817499F
:1003D0000A6802430A601C981B9A90400191FFF73B
:1003E00005FF0398800009A9085801990A6802438B
:1003F0000A60FFE70398401E0390E0E7FFE7FFE78E
:1004000033E7C0461410024000040048555501006F
:1004100008040048555500001404004850C300006B
:100420003004000850040008100400481804004874
:100430000100000002000000040000008000000035
:100440004000000020000000100000000800000034
:100450000000010000000200000004000000800015
:100460000000400000002000000010000000080014
:10047000800400080000002060060000040100085D
:04000005080000C12E
:00000001FF
